:100000000C9434000C9446000C9446000C9446006A
:100010000C9446000C9446000C9446000C94460048
:100020000C9446000C9446000C9446000C94460038
:100030000C9446000C9446000C9446000C94460028
:100040000C9446000C9446000C9446000C94460018
:100050000C9446000C9446000C9446000C94460008
:100060000C9446000C94460011241FBECFEFD8E03C
:10007000DEBFCDBF21E0A0E0B1E001C01D92A23003
:10008000B207E1F70E9448000C9471000C94000044
:10009000CF93DF93CDB7DEB784E290E021E0FC019F
:1000A0002083109201011092000109C0809100018B
:1000B000909101010196909301018093000180913C
:1000C0000001909101018031974284F385E290E034
:1000D00025E230E0F901308121E02327FC01208373
:0600E000E0CFF894FFCF11
:00000001FF
