:100000000C9444000C940F010C9419010C946100A1
:100010000C9461000C9461000C9461000C946100DC
:100020000C9461000C9461000C9461000C946100CC
:100030000C9461000C9461000C9461000C946100BC
:100040000C9461000C9461000C9461000C946100AC
:100050000C9461000C9461000C9461000C9461009C
:100060000C9461000C9461001F1115111F150A00FA
:1000700000000A050A000000000C1E13131E0C00ED
:1000800004110E1B0E11040011241FBECFEFD8E087
:10009000DEBFCDBF11E0A0E0B1E0E0EFF8E002C0CC
:1000A00005900D92AE37B107D9F721E0AEE7B1E088
:1000B00001C01D92A038B207E1F70E9444030C94DE
:1000C00076040C9400008FEF8AB98AB1837F8AB9D5
:1000D0008CE08BB983E08DBB8CEF80936900089531
:1000E0000E9403046FE170E00E948F03FC01E05066
:1000F000FF4F808108951F93CF93DF930E940304E5
:10010000CFE1D0E0BE010E948F03FC01E050FF4F21
:10011000808180933F010E940304BE010E948F03EF
:10012000FC01E050FF4F808180932F0160917E01A0
:1001300070917F01A0E5B1E0E0E3F1E04FEF5FEF08
:1001400021E030E090E214E08D91843099F083302A
:10015000A1F1813009F03FC0ED012397C881C23081
:1001600009F441C0ED012297C881C230E1F1EF01ED
:100170002197888390832F5F3F4F31964F5F5F4F6A
:100180002131310509F770937F0160937E0180E191
:10019000E0E3F1E0A0E5B1E001900D928A95E1F78E
:1001A00080E1E0E2F1E0A0E4B1E001900D928A95F7
:1001B000E1F7DF91CF911F9108958C918130D9F6AD
:1001C00070937F0160937E010E94B30184E691E009
:1001D0000E941A02FFCF823071F69083E901C05D60
:1001E000DE4F8883C8CF6F5F7F4FEA01C05DDE4F6F
:1001F0001883C0CFCF93DF9388E40E945201C8E6F2
:10020000D0E0FE0184910E946F012196F0E0C73892
:10021000DF07B9F780E8DF91CF910C9452011F926C
:100220000F920FB60F9211240F900FBE0F901F90D8
:1002300018951F920F920FB60F9211248F938091F1
:100240005001833019F482E0809331018F910F9037
:100250000FBE0F901F9018952C982D9A84B1807F17
:1002600084B92E9A000083B12E9800002E9A0000C7
:1002700093B12E9883FDF0CF00C000C02C982D9A2A
:1002800084B1807F84B92E9A000023B12E9800009B
:100290002E9A000093B12295207F892F8F702E987F
:1002A000822B0895CF93C82F0E942C012C982D9853
:1002B00084B18F6084B995B1907F8C2F82958F70B7
:1002C000892B85B92E9A00002E98CF70C92BC5B9FD
:1002D0002E9A00002E989F6095B9CF910895CF93E4
:1002E000C82F0E942C012C9A2D9884B18F6084B95C
:1002F00095B1907F8C2F82958F70892B85B92E9A1E
:1003000000002E98CF70C92BC5B92E9A00002E98E8
:100310009F6095B9CF910895CF936623F1F0C0EC1B
:10032000C80F0E942C012C982D9884B18F6084B93D
:1003300095B1907F8C2F82958F70892B85B92E9ADD
:1003400000002E988C2F8F70892B85B92E9A000073
:100350002E989F6095B9CF910895C0E8E1CF0E9493
:100360002C0190E008950E942C012C982D9884B1C6
:100370008F6084B985B1807F85B92E9A00002E9850
:10038000982F916095B92E9A00002E988F6085B9AC
:1003900008950E942C012C982D9884B18F6084B907
:1003A00085B1807F85B92E9A00002E98982F926093
:1003B00095B92E9A00002E988F6085B90895CF9335
:1003C000C82F0E942C01CA30C9F02C9A2D9884B1F4
:1003D0008F6084B985B1807F9C2F92959F70982BF8
:1003E00095B92E9A00002E98CF70C82BC5B92E9AB9
:1003F00000002E988F6085B9CF9108958034C0F0A9
:10040000C8E00E942C012C982D9884B18F6084B98B
:1004100085B1807F9C2F982B95B92E9A00002E983D
:1004200085B92E9A00002E988F6085B9CF910895D6
:10043000CCE0E7CF0F931F93CF938C01F801C191CC
:100440008F01CC2301F10E942C01CA3001F12C9ABA
:100450002D9884B18F6084B995B1907F2C2F22950F
:100460002F70292B25B92E9A00002E98CF70C92BFA
:10047000C5B92E9A00002E989F6095B9F801C191D8
:100480008F01C111E0CFCF911F910F91089580345A
:10049000B8F0C8E00E942C012C982D9884B18F6090
:1004A00084B985B1807F9C2F982B95B92E9A000036
:1004B0002E9885B92E9A00002E988F6085B9BECFF0
:1004C000CCE0E8CF0F931F93CF938C0119C02C9AE7
:1004D0002D9894B19F6094B995B1907F2C2F22955F
:1004E0002F70292B25B92E9A00002E98CF70C92B7A
:1004F000C5B92E9A00002E989F6095B90F5F1F4FC7
:10050000F801C491CC23E9F00E942C01CA30F9F61D
:100510008034D8F0C8E00E942C012C982D9884B12A
:100520008F6084B985B1807F9C2F982B95B92E9AC6
:1005300000002E9885B92E9A00002E988F6085B9FC
:10054000DDCFCF911F910F910895CCE0E4CFCF93F1
:10055000C82F84B18F6784B98FE99FE00197F1F7C5
:1005600000C00000299A289A2E9A00002E9881EE49
:1005700094E00197F1F700C000002E9A00002E9839
:1005800095E19A95F1F700002E9A00002E9885E1EA
:100590008A95F1F7000028982E9A00002E9895E190
:1005A0009A95F1F700000E942C012C982D9884B1A7
:1005B0008F6084B995B1907F892F826085B92E9A1A
:1005C00000002E98892F886085B92E9A00002E98F9
:1005D0009F6095B90E942C012C982D9884B18F6052
:1005E00084B995B1907F95B92E9A00002E98892FE5
:1005F000886085B92E9A00002E989F6095B90E9458
:100600002C012C982D9884B18F6084B995B1907F7E
:1006100095B92E9A00002E98892F816085B92E9A5F
:1006200000002E989F6095B90E942C012C982D985F
:1006300084B18F6084B995B1907F95B92E9A0000EE
:100640002E98892F866085B92E9A00002E989F607B
:1006500095B90E942C012C982D9884B18F6084B993
:1006600095B1907F8C2F82958F70892B85B92E9AAA
:1006700000002E98CF70C92BC5B92E9A00002E9875
:100680009F6095B9CF9108958FEF8AB98AB1837F22
:100690008AB98CE08BB983E08DBB8CEF80936900C5
:1006A0008CE00E94A7020E94FA007894CAE0D0E091
:1006B00000917E0110917F0181E00E9452010E9411
:1006C000B30180E391E00E941A0261E080E00E94A1
:1006D0008C018DE691E00E941A02C801BE010E94C1
:1006E0008F03CB01BE010E948F03805D0E94DF015A
:1006F00080917E0190917F01BE010E948F03805DF9
:100700000E94DF0186E791E00E941A028FE39CE9D4
:100710000197F1F700C000000E947B00C9CF97FB52
:10072000072E16F4009407D077FD09D00E94A3038A
:1007300007FC05D03EF4909581959F4F08957095E4
:1007400061957F4F0895AA1BBB1B51E107C0AA1FEB
:10075000BB1FA617B70710F0A61BB70B881F991F62
:100760005A95A9F780959095BC01CD0108958F9277
:100770009F92AF92BF92CF92DF92EF92FF92CF9370
:10078000DF93EC01688179818A819B816115710514
:100790008105910521F464E279ED8BE597E02DE187
:1007A00033EF41E050E00E94130449015A019B01DC
:1007B000AC01A7EAB1E40E9432046B017C01ACEE0B
:1007C000B4EFA50194010E944004DC01CB018C0D23
:1007D0009D1DAE1DBF1DB7FF03C00197A109B04805
:1007E00088839983AA83BB839F77DF91CF91FF9002
:1007F000EF90DF90CF90BF90AF909F908F90089533
:100800000E94B703089580E691E00E94B70308951F
:10081000A0E0B0E08093600190936101A093620139
:10082000B09363010895052E97FB1EF400940E9477
:100830002A0457FD07D00E94450407FC03D04EF45C
:100840000C942A0450954095309521953F4F4F4F79
:100850005F4F089590958095709561957F4F8F4F6C
:100860009F4F08950E946704A59F900DB49F900D1F
:10087000A49F800D911D11240895B7FF0C9432049C
:100880000E943204821B930B0895A1E21A2EAA1B28
:10089000BB1BFD010DC0AA1FBB1FEE1FFF1FA21730
:1008A000B307E407F50720F0A21BB30BE40BF50B2D
:1008B000661F771F881F991F1A9469F760957095B6
:1008C000809590959B01AC01BD01CF010895A29F39
:1008D000B001B39FC001A39F700D811D1124911D14
:1008E000B29F700D811D1124911D0895F894FFCFC2
:1008F000010101010101012020202020012020010F
:1009000001200120202020010120202001202001A1
:1009100020202020202020202020202020202020D7
:1009200003202020202020202020202020202020E4
:1009300020202020202020202020202020202020B7
:1009400003202020202020202020202020202020C4
:10095000010000005045524445444F520050756E0E
:0E096000746F733A20002020202020202000F9
:00000001FF
