:020000020000FC
:100100003F065B4F666D7D077F6F777C395E797345
:1000000008E00EBF0FEF0DBF0FEF04B90AB900E60D
:1000100000937C0008EE00937A0011E000EF00935B
:100020007A00309179003323C9F3319F00D00F93C8
:100030001F93D0010027112757EFF1E0E0E024D013
:10004000E20F14911BB955B936D0F1E0E0E05BEF57
:100050001BD0E20F149110681BB955B92CD0F1E0F8
:10006000E0E05DEF11D0E20F14911BB955B923D038
:10007000F1E0E0E05EEF08D0E20F14911BB955B952
:100080001AD00F911F9108950F931F9300271127E6
:10009000AA3030F0AA5003950BF0FACF1395F8CFA1
:1000A000BB2321F00395AA50BA95F2CF2A2FD8018D
:1000B0000F911F9108950F930AE0D0E0CFEF2197A1
:0A00C000F1F70A95D1F70F910895AA
:00000001FF
