:020000020000FC
:100000000FEF04B9C0E0D1E000E11FE3199316E05F
:1000100019931BE519931FE4199316E619931DE62E
:1000200019931DE7199317E019931FE719931FE61A
:10003000199317E719931CE7199319E319931EE510
:10004000199319E7199311E7199313E4199311E41C
:10005000199313E4199311E41993C0E0D1E01991B5
:1000600015B907D00A9509F0FACF00E1C0E0D1E058
:10007000F6CF0F930AE0B1E6A8EA1197F1F70A95D7
:06008000D1F70F91089575
:00000001FF
